{
  "contractName": "UniversityCertificateNFT",
  "abi": [
    {
      "inputs": [],
      "stateMutability": "nonpayable",
      "type": "constructor"
    },
    {
      "anonymous": false,
      "inputs": [
        {
          "indexed": true,
          "internalType": "address",
          "name": "owner",
          "type": "address"
        },
        {
          "indexed": true,
          "internalType": "address",
          "name": "approved",
          "type": "address"
        },
        {
          "indexed": true,
          "internalType": "uint256",
          "name": "tokenId",
          "type": "uint256"
        }
      ],
      "name": "Approval",
      "type": "event"
    },
    {
      "anonymous": false,
      "inputs": [
        {
          "indexed": true,
          "internalType": "address",
          "name": "owner",
          "type": "address"
        },
        {
          "indexed": true,
          "internalType": "address",
          "name": "operator",
          "type": "address"
        },
        {
          "indexed": false,
          "internalType": "bool",
          "name": "approved",
          "type": "bool"
        }
      ],
      "name": "ApprovalForAll",
      "type": "event"
    },
    {
      "anonymous": false,
      "inputs": [
        {
          "indexed": true,
          "internalType": "address",
          "name": "from",
          "type": "address"
        },
        {
          "indexed": true,
          "internalType": "address",
          "name": "to",
          "type": "address"
        },
        {
          "indexed": true,
          "internalType": "uint256",
          "name": "tokenId",
          "type": "uint256"
        }
      ],
      "name": "Transfer",
      "type": "event"
    },
    {
      "inputs": [
        {
          "internalType": "address",
          "name": "to",
          "type": "address"
        },
        {
          "internalType": "uint256",
          "name": "tokenId",
          "type": "uint256"
        }
      ],
      "name": "approve",
      "outputs": [],
      "stateMutability": "nonpayable",
      "type": "function"
    },
    {
      "inputs": [
        {
          "internalType": "address",
          "name": "owner",
          "type": "address"
        }
      ],
      "name": "balanceOf",
      "outputs": [
        {
          "internalType": "uint256",
          "name": "",
          "type": "uint256"
        }
      ],
      "stateMutability": "view",
      "type": "function"
    },
    {
      "inputs": [
        {
          "internalType": "uint256",
          "name": "tokenId",
          "type": "uint256"
        }
      ],
      "name": "getApproved",
      "outputs": [
        {
          "internalType": "address",
          "name": "",
          "type": "address"
        }
      ],
      "stateMutability": "view",
      "type": "function"
    },
    {
      "inputs": [
        {
          "internalType": "address",
          "name": "owner",
          "type": "address"
        },
        {
          "internalType": "address",
          "name": "operator",
          "type": "address"
        }
      ],
      "name": "isApprovedForAll",
      "outputs": [
        {
          "internalType": "bool",
          "name": "",
          "type": "bool"
        }
      ],
      "stateMutability": "view",
      "type": "function"
    },
    {
      "inputs": [],
      "name": "name",
      "outputs": [
        {
          "internalType": "string",
          "name": "",
          "type": "string"
        }
      ],
      "stateMutability": "view",
      "type": "function"
    },
    {
      "inputs": [
        {
          "internalType": "uint256",
          "name": "tokenId",
          "type": "uint256"
        }
      ],
      "name": "ownerOf",
      "outputs": [
        {
          "internalType": "address",
          "name": "",
          "type": "address"
        }
      ],
      "stateMutability": "view",
      "type": "function"
    },
    {
      "inputs": [
        {
          "internalType": "address",
          "name": "from",
          "type": "address"
        },
        {
          "internalType": "address",
          "name": "to",
          "type": "address"
        },
        {
          "internalType": "uint256",
          "name": "tokenId",
          "type": "uint256"
        }
      ],
      "name": "safeTransferFrom",
      "outputs": [],
      "stateMutability": "nonpayable",
      "type": "function"
    },
    {
      "inputs": [
        {
          "internalType": "address",
          "name": "from",
          "type": "address"
        },
        {
          "internalType": "address",
          "name": "to",
          "type": "address"
        },
        {
          "internalType": "uint256",
          "name": "tokenId",
          "type": "uint256"
        },
        {
          "internalType": "bytes",
          "name": "data",
          "type": "bytes"
        }
      ],
      "name": "safeTransferFrom",
      "outputs": [],
      "stateMutability": "nonpayable",
      "type": "function"
    },
    {
      "inputs": [
        {
          "internalType": "address",
          "name": "operator",
          "type": "address"
        },
        {
          "internalType": "bool",
          "name": "approved",
          "type": "bool"
        }
      ],
      "name": "setApprovalForAll",
      "outputs": [],
      "stateMutability": "nonpayable",
      "type": "function"
    },
    {
      "inputs": [
        {
          "internalType": "bytes4",
          "name": "interfaceId",
          "type": "bytes4"
        }
      ],
      "name": "supportsInterface",
      "outputs": [
        {
          "internalType": "bool",
          "name": "",
          "type": "bool"
        }
      ],
      "stateMutability": "view",
      "type": "function"
    },
    {
      "inputs": [],
      "name": "symbol",
      "outputs": [
        {
          "internalType": "string",
          "name": "",
          "type": "string"
        }
      ],
      "stateMutability": "view",
      "type": "function"
    },
    {
      "inputs": [
        {
          "internalType": "uint256",
          "name": "tokenId",
          "type": "uint256"
        }
      ],
      "name": "tokenURI",
      "outputs": [
        {
          "internalType": "string",
          "name": "",
          "type": "string"
        }
      ],
      "stateMutability": "view",
      "type": "function"
    },
    {
      "inputs": [
        {
          "internalType": "address",
          "name": "from",
          "type": "address"
        },
        {
          "internalType": "address",
          "name": "to",
          "type": "address"
        },
        {
          "internalType": "uint256",
          "name": "tokenId",
          "type": "uint256"
        }
      ],
      "name": "transferFrom",
      "outputs": [],
      "stateMutability": "nonpayable",
      "type": "function"
    },
    {
      "inputs": [
        {
          "internalType": "bytes32",
          "name": "_certificateHash",
          "type": "bytes32"
        },
        {
          "internalType": "address",
          "name": "_owner",
          "type": "address"
        },
        {
          "internalType": "string",
          "name": "_metadataURI",
          "type": "string"
        }
      ],
      "name": "createNFT",
      "outputs": [],
      "stateMutability": "nonpayable",
      "type": "function"
    },
    {
      "inputs": [
        {
          "internalType": "uint256",
          "name": "_tokenId",
          "type": "uint256"
        }
      ],
      "name": "getNFTMetadata",
      "outputs": [
        {
          "internalType": "string",
          "name": "",
          "type": "string"
        }
      ],
      "stateMutability": "view",
      "type": "function"
    },
    {
      "inputs": [
        {
          "internalType": "uint256",
          "name": "_tokenId",
          "type": "uint256"
        }
      ],
      "name": "burnNFT",
      "outputs": [],
      "stateMutability": "nonpayable",
      "type": "function"
    }
  ],
  "bytecode": "0x60806040523480156200001157600080fd5b506040518060400160405280601a81526020017f556e6976657273697479204365727469666963617465204e46540000000000008152506040518060400160405280600581526020017f55434e4654000000000000000000000000000000000000000000000000000000815250816000908051906020019062000096929190620000b8565b508060019080519060200190620000af929190620000b8565b505050620001cc565b828054620000c69062000197565b90600052602060002090601f016020900481019282620000ea576000855562000136565b82601f106200010557805160ff191683800117855562000136565b8280016001018555821562000136579182015b828111156200013557825182559160200191906001019062000118565b5b50905062000145919062000149565b5090565b5b80821115620001645760008160009055506001016200014a565b5090565b7f4e487b7100000000000000000000000000000000000000000000000000000000600052602260045260246000fd5b60006002820490506001821680620001b057607f821691505b602082108103620001c657620001c562000168565b5b50919050565b6129b680620001dc6000396000f3fe608060405234801561001057600080fd5b50600436106101005760003560e01c80636be9a6f111610097578063b88d4fde11610066578063b88d4fde146102bd578063c87b56dd146102d9578063e985e9c514610309578063eae382991461033957610100565b80636be9a6f11461022357806370a082311461025357806395d89b4114610283578063a22cb465146102a157610100565b806323b872dd116100d357806323b872dd1461019f5780632890e0d7146101bb57806342842e0e146101d75780636352211e146101f357610100565b806301ffc9a71461010557806306fdde0314610135578063081812fc14610153578063095ea7b314610183575b600080fd5b61011f600480360381019061011a9190611a1f565b610355565b60405161012c9190611a67565b60405180910390f35b61013d610437565b60405161014a9190611b1b565b60405180910390f35b61016d60048036038101906101689190611b73565b6104c9565b60405161017a9190611be1565b60405180910390f35b61019d60048036038101906101989190611c28565b61050f565b005b6101b960048036038101906101b49190611c68565b610626565b005b6101d560048036038101906101d09190611b73565b610686565b005b6101f160048036038101906101ec9190611c68565b6106e2565b005b61020d60048036038101906102089190611b73565b610702565b60405161021a9190611be1565b60405180910390f35b61023d60048036038101906102389190611b73565b610788565b60405161024a9190611b1b565b60405180910390f35b61026d60048036038101906102689190611cbb565b6107e2565b60405161027a9190611cf7565b60405180910390f35b61028b610899565b6040516102989190611b1b565b60405180910390f35b6102bb60048036038101906102b69190611d3e565b61092b565b005b6102d760048036038101906102d29190611eb3565b610941565b005b6102f360048036038101906102ee9190611b73565b6109a3565b6040516103009190611b1b565b60405180910390f35b610323600480360381019061031e9190611f36565b610a0b565b6040516103309190611a67565b60405180910390f35b610353600480360381019061034e919061204d565b610a9f565b005b60007f80ac58cd000000000000000000000000000000000000000000000000000000007bffffffffffffffffffffffffffffffffffffffffffffffffffffffff1916827bffffffffffffffffffffffffffffffffffffffffffffffffffffffff1916148061042057507f5b5e139f000000000000000000000000000000000000000000000000000000007bffffffffffffffffffffffffffffffffffffffffffffffffffffffff1916827bffffffffffffffffffffffffffffffffffffffffffffffffffffffff1916145b80610430575061042f82610b10565b5b9050919050565b606060008054610446906120eb565b80601f0160208091040260200160405190810160405280929190818152602001828054610472906120eb565b80156104bf5780601f10610494576101008083540402835291602001916104bf565b820191906000526020600020905b8154815290600101906020018083116104a257829003601f168201915b5050505050905090565b60006104d482610b7a565b6004600083815260200190815260200160002060009054906101000a900473ffffffffffffffffffffffffffffffffffffffff169050919050565b600061051a82610702565b90508073ffffffffffffffffffffffffffffffffffffffff168373ffffffffffffffffffffffffffffffffffffffff160361058a576040517f08c379a00000000000000000000000000000000000000000000000000000000081526004016105819061218e565b60405180910390fd5b8073ffffffffffffffffffffffffffffffffffffffff166105a9610bc5565b73ffffffffffffffffffffffffffffffffffffffff1614806105d857506105d7816105d2610bc5565b610a0b565b5b610617576040517f08c379a000000000000000000000000000000000000000000000000000000000815260040161060e90612220565b60405180910390fd5b6106218383610bcd565b505050565b610637610631610bc5565b82610c86565b610676576040517f08c379a000000000000000000000000000000000000000000000000000000000815260040161066d906122b2565b60405180910390fd5b610681838383610d1b565b505050565b610697610691610bc5565b82610c86565b6106d6576040517f08c379a00000000000000000000000000000000000000000000000000000000081526004016106cd9061231e565b60405180910390fd5b6106df81611014565b50565b6106fd83838360405180602001604052806000815250610941565b505050565b60008061070e83611162565b9050600073ffffffffffffffffffffffffffffffffffffffff168173ffffffffffffffffffffffffffffffffffffffff160361077f576040517f08c379a00000000000000000000000000000000000000000000000000000000081526004016107769061238a565b60405180910390fd5b80915050919050565b60606107938261119f565b6107d2576040517f08c379a00000000000000000000000000000000000000000000000000000000081526004016107c9906123f6565b60405180910390fd5b6107db826109a3565b9050919050565b60008073ffffffffffffffffffffffffffffffffffffffff168273ffffffffffffffffffffffffffffffffffffffff1603610852576040517f08c379a000000000000000000000000000000000000000000000000000000000815260040161084990612488565b60405180910390fd5b600360008373ffffffffffffffffffffffffffffffffffffffff1673ffffffffffffffffffffffffffffffffffffffff168152602001908152602001600020549050919050565b6060600180546108a8906120eb565b80601f01602080910402602001604051908101604052809291908181526020018280546108d4906120eb565b80156109215780601f106108f657610100808354040283529160200191610921565b820191906000526020600020905b81548152906001019060200180831161090457829003601f168201915b5050505050905090565b61093d610936610bc5565b83836111e0565b5050565b61095261094c610bc5565b83610c86565b610991576040517f08c379a0000000000000000000000000000000000000000000000000000000008152600401610988906122b2565b60405180910390fd5b61099d8484848461134c565b50505050565b60606109ae82610b7a565b60006109b86113a8565b905060008151116109d85760405180602001604052806000815250610a03565b806109e2846113bf565b6040516020016109f39291906124e4565b6040516020818303038152906040525b915050919050565b6000600560008473ffffffffffffffffffffffffffffffffffffffff1673ffffffffffffffffffffffffffffffffffffffff16815260200190815260200160002060008373ffffffffffffffffffffffffffffffffffffffff1673ffffffffffffffffffffffffffffffffffffffff16815260200190815260200160002060009054906101000a900460ff16905092915050565b6000600660008581526020019081526020016000206002015411610af8576040517f08c379a0000000000000000000000000000000000000000000000000000000008152600401610aef90612554565b60405180910390fd5b60008360001c9050610b0a838261148d565b50505050565b60007f01ffc9a7000000000000000000000000000000000000000000000000000000007bffffffffffffffffffffffffffffffffffffffffffffffffffffffff1916827bffffffffffffffffffffffffffffffffffffffffffffffffffffffff1916149050919050565b610b838161119f565b610bc2576040517f08c379a0000000000000000000000000000000000000000000000000000000008152600401610bb99061238a565b60405180910390fd5b50565b600033905090565b816004600083815260200190815260200160002060006101000a81548173ffffffffffffffffffffffffffffffffffffffff021916908373ffffffffffffffffffffffffffffffffffffffff160217905550808273ffffffffffffffffffffffffffffffffffffffff16610c4083610702565b73ffffffffffffffffffffffffffffffffffffffff167f8c5be1e5ebec7d5bd14f71427d1e84f3dd0314c0f7b2291e5b200ac8c7c3b92560405160405180910390a45050565b600080610c9283610702565b90508073ffffffffffffffffffffffffffffffffffffffff168473ffffffffffffffffffffffffffffffffffffffff161480610cd45750610cd38185610a0b565b5b80610d1257508373ffffffffffffffffffffffffffffffffffffffff16610cfa846104c9565b73ffffffffffffffffffffffffffffffffffffffff16145b91505092915050565b8273ffffffffffffffffffffffffffffffffffffffff16610d3b82610702565b73ffffffffffffffffffffffffffffffffffffffff1614610d91576040517f08c379a0000000000000000000000000000000000000000000000000000000008152600401610d88906125e6565b60405180910390fd5b600073ffffffffffffffffffffffffffffffffffffffff168273ffffffffffffffffffffffffffffffffffffffff1603610e00576040517f08c379a0000000000000000000000000000000000000000000000000000000008152600401610df790612678565b60405180910390fd5b610e0d83838360016116aa565b8273ffffffffffffffffffffffffffffffffffffffff16610e2d82610702565b73ffffffffffffffffffffffffffffffffffffffff1614610e83576040517f08c379a0000000000000000000000000000000000000000000000000000000008152600401610e7a906125e6565b60405180910390fd5b6004600082815260200190815260200160002060006101000a81549073ffffffffffffffffffffffffffffffffffffffff02191690556001600360008573ffffffffffffffffffffffffffffffffffffffff1673ffffffffffffffffffffffffffffffffffffffff168152602001908152602001600020600082825403925050819055506001600360008473ffffffffffffffffffffffffffffffffffffffff1673ffffffffffffffffffffffffffffffffffffffff16815260200190815260200160002060008282540192505081905550816002600083815260200190815260200160002060006101000a81548173ffffffffffffffffffffffffffffffffffffffff021916908373ffffffffffffffffffffffffffffffffffffffff160217905550808273ffffffffffffffffffffffffffffffffffffffff168473ffffffffffffffffffffffffffffffffffffffff167fddf252ad1be2c89b69c2b068fc378daa952ba7f163c4a11628f55a4df523b3ef60405160405180910390a461100f83838360016116b0565b505050565b600061101f82610702565b905061102f8160008460016116aa565b61103882610702565b90506004600083815260200190815260200160002060006101000a81549073ffffffffffffffffffffffffffffffffffffffff02191690556001600360008373ffffffffffffffffffffffffffffffffffffffff1673ffffffffffffffffffffffffffffffffffffffff168152602001908152602001600020600082825403925050819055506002600083815260200190815260200160002060006101000a81549073ffffffffffffffffffffffffffffffffffffffff021916905581600073ffffffffffffffffffffffffffffffffffffffff168273ffffffffffffffffffffffffffffffffffffffff167fddf252ad1be2c89b69c2b068fc378daa952ba7f163c4a11628f55a4df523b3ef60405160405180910390a461115e8160008460016116b0565b5050565b60006002600083815260200190815260200160002060009054906101000a900473ffffffffffffffffffffffffffffffffffffffff169050919050565b60008073ffffffffffffffffffffffffffffffffffffffff166111c183611162565b73ffffffffffffffffffffffffffffffffffffffff1614159050919050565b8173ffffffffffffffffffffffffffffffffffffffff168373ffffffffffffffffffffffffffffffffffffffff160361124e576040517f08c379a0000000000000000000000000000000000000000000000000000000008152600401611245906126e4565b60405180910390fd5b80600560008573ffffffffffffffffffffffffffffffffffffffff1673ffffffffffffffffffffffffffffffffffffffff16815260200190815260200160002060008473ffffffffffffffffffffffffffffffffffffffff1673ffffffffffffffffffffffffffffffffffffffff16815260200190815260200160002060006101000a81548160ff0219169083151502179055508173ffffffffffffffffffffffffffffffffffffffff168373ffffffffffffffffffffffffffffffffffffffff167f17307eab39ab6107e8899845ad3d59bd9653f200f220920489ca2b5937696c318360405161133f9190611a67565b60405180910390a3505050565b611357848484610d1b565b611363848484846116b6565b6113a2576040517f08c379a000000000000000000000000000000000000000000000000000000000815260040161139990612776565b60405180910390fd5b50505050565b606060405180602001604052806000815250905090565b6060600060016113ce8461183d565b01905060008167ffffffffffffffff8111156113ed576113ec611d88565b5b6040519080825280601f01601f19166020018201604052801561141f5781602001600182028036833780820191505090505b509050600082602001820190505b600115611482578080600190039150507f3031323334353637383961626364656600000000000000000000000000000000600a86061a8153600a858161147657611475612796565b5b0494506000850361142d575b819350505050919050565b600073ffffffffffffffffffffffffffffffffffffffff168273ffffffffffffffffffffffffffffffffffffffff16036114fc576040517f08c379a00000000000000000000000000000000000000000000000000000000081526004016114f390612811565b60405180910390fd5b6115058161119f565b15611545576040517f08c379a000000000000000000000000000000000000000000000000000000000815260040161153c9061287d565b60405180910390fd5b6115536000838360016116aa565b61155c8161119f565b1561159c576040517f08c379a00000000000000000000000000000000000000000000000000000000081526004016115939061287d565b60405180910390fd5b6001600360008473ffffffffffffffffffffffffffffffffffffffff1673ffffffffffffffffffffffffffffffffffffffff16815260200190815260200160002060008282540192505081905550816002600083815260200190815260200160002060006101000a81548173ffffffffffffffffffffffffffffffffffffffff021916908373ffffffffffffffffffffffffffffffffffffffff160217905550808273ffffffffffffffffffffffffffffffffffffffff16600073ffffffffffffffffffffffffffffffffffffffff167fddf252ad1be2c89b69c2b068fc378daa952ba7f163c4a11628f55a4df523b3ef60405160405180910390a46116a66000838360016116b0565b5050565b50505050565b50505050565b60006116d78473ffffffffffffffffffffffffffffffffffffffff16611990565b15611830578373ffffffffffffffffffffffffffffffffffffffff1663150b7a02611700610bc5565b8786866040518563ffffffff1660e01b815260040161172294939291906128f2565b6020604051808303816000875af192505050801561175e57506040513d601f19601f8201168201806040525081019061175b9190612953565b60015b6117e0573d806000811461178e576040519150601f19603f3d011682016040523d82523d6000602084013e611793565b606091505b5060008151036117d8576040517f08c379a00000000000000000000000000000000000000000000000000000000081526004016117cf90612776565b60405180910390fd5b805181602001fd5b63150b7a0260e01b7bffffffffffffffffffffffffffffffffffffffffffffffffffffffff1916817bffffffffffffffffffffffffffffffffffffffffffffffffffffffff191614915050611835565b600190505b949350505050565b600080600090507a184f03e93ff9f4daa797ed6e38ed64bf6a1f010000000000000000831061189b577a184f03e93ff9f4daa797ed6e38ed64bf6a1f010000000000000000838161189157611890612796565b5b0492506040810190505b6d04ee2d6d415b85acef810000000083106118d8576d04ee2d6d415b85acef810000000083816118ce576118cd612796565b5b0492506020810190505b662386f26fc10000831061190757662386f26fc1000083816118fd576118fc612796565b5b0492506010810190505b6305f5e1008310611930576305f5e100838161192657611925612796565b5b0492506008810190505b612710831061195557612710838161194b5761194a612796565b5b0492506004810190505b60648310611978576064838161196e5761196d612796565b5b0492506002810190505b600a8310611987576001810190505b80915050919050565b6000808273ffffffffffffffffffffffffffffffffffffffff163b119050919050565b6000604051905090565b600080fd5b600080fd5b60007fffffffff0000000000000000000000000000000000000000000000000000000082169050919050565b6119fc816119c7565b8114611a0757600080fd5b50565b600081359050611a19816119f3565b92915050565b600060208284031215611a3557611a346119bd565b5b6000611a4384828501611a0a565b91505092915050565b60008115159050919050565b611a6181611a4c565b82525050565b6000602082019050611a7c6000830184611a58565b92915050565b600081519050919050565b600082825260208201905092915050565b60005b83811015611abc578082015181840152602081019050611aa1565b83811115611acb576000848401525b50505050565b6000601f19601f8301169050919050565b6000611aed82611a82565b611af78185611a8d565b9350611b07818560208601611a9e565b611b1081611ad1565b840191505092915050565b60006020820190508181036000830152611b358184611ae2565b905092915050565b6000819050919050565b611b5081611b3d565b8114611b5b57600080fd5b50565b600081359050611b6d81611b47565b92915050565b600060208284031215611b8957611b886119bd565b5b6000611b9784828501611b5e565b91505092915050565b600073ffffffffffffffffffffffffffffffffffffffff82169050919050565b6000611bcb82611ba0565b9050919050565b611bdb81611bc0565b82525050565b6000602082019050611bf66000830184611bd2565b92915050565b611c0581611bc0565b8114611c1057600080fd5b50565b600081359050611c2281611bfc565b92915050565b60008060408385031215611c3f57611c3e6119bd565b5b6000611c4d85828601611c13565b9250506020611c5e85828601611b5e565b9150509250929050565b600080600060608486031215611c8157611c806119bd565b5b6000611c8f86828701611c13565b9350506020611ca086828701611c13565b9250506040611cb186828701611b5e565b9150509250925092565b600060208284031215611cd157611cd06119bd565b5b6000611cdf84828501611c13565b91505092915050565b611cf181611b3d565b82525050565b6000602082019050611d0c6000830184611ce8565b92915050565b611d1b81611a4c565b8114611d2657600080fd5b50565b600081359050611d3881611d12565b92915050565b60008060408385031215611d5557611d546119bd565b5b6000611d6385828601611c13565b9250506020611d7485828601611d29565b9150509250929050565b600080fd5b600080fd5b7f4e487b7100000000000000000000000000000000000000000000000000000000600052604160045260246000fd5b611dc082611ad1565b810181811067ffffffffffffffff82111715611ddf57611dde611d88565b5b80604052505050565b6000611df26119b3565b9050611dfe8282611db7565b919050565b600067ffffffffffffffff821115611e1e57611e1d611d88565b5b611e2782611ad1565b9050602081019050919050565b82818337600083830152505050565b6000611e56611e5184611e03565b611de8565b905082815260208101848484011115611e7257611e71611d83565b5b611e7d848285611e34565b509392505050565b600082601f830112611e9a57611e99611d7e565b5b8135611eaa848260208601611e43565b91505092915050565b60008060008060808587031215611ecd57611ecc6119bd565b5b6000611edb87828801611c13565b9450506020611eec87828801611c13565b9350506040611efd87828801611b5e565b925050606085013567ffffffffffffffff811115611f1e57611f1d6119c2565b5b611f2a87828801611e85565b91505092959194509250565b60008060408385031215611f4d57611f4c6119bd565b5b6000611f5b85828601611c13565b9250506020611f6c85828601611c13565b9150509250929050565b6000819050919050565b611f8981611f76565b8114611f9457600080fd5b50565b600081359050611fa681611f80565b92915050565b600067ffffffffffffffff821115611fc757611fc6611d88565b5b611fd082611ad1565b9050602081019050919050565b6000611ff0611feb84611fac565b611de8565b90508281526020810184848401111561200c5761200b611d83565b5b612017848285611e34565b509392505050565b600082601f83011261203457612033611d7e565b5b8135612044848260208601611fdd565b91505092915050565b600080600060608486031215612066576120656119bd565b5b600061207486828701611f97565b935050602061208586828701611c13565b925050604084013567ffffffffffffffff8111156120a6576120a56119c2565b5b6120b28682870161201f565b9150509250925092565b7f4e487b7100000000000000000000000000000000000000000000000000000000600052602260045260246000fd5b6000600282049050600182168061210357607f821691505b602082108103612116576121156120bc565b5b50919050565b7f4552433732313a20617070726f76616c20746f2063757272656e74206f776e6560008201527f7200000000000000000000000000000000000000000000000000000000000000602082015250565b6000612178602183611a8d565b91506121838261211c565b604082019050919050565b600060208201905081810360008301526121a78161216b565b9050919050565b7f4552433732313a20617070726f76652063616c6c6572206973206e6f7420746f60008201527f6b656e206f776e6572206f7220617070726f76656420666f7220616c6c000000602082015250565b600061220a603d83611a8d565b9150612215826121ae565b604082019050919050565b60006020820190508181036000830152612239816121fd565b9050919050565b7f4552433732313a2063616c6c6572206973206e6f7420746f6b656e206f776e6560008201527f72206f7220617070726f76656400000000000000000000000000000000000000602082015250565b600061229c602d83611a8d565b91506122a782612240565b604082019050919050565b600060208201905081810360008301526122cb8161228f565b9050919050565b7f4e6f7420617070726f766564206f72206f776e65720000000000000000000000600082015250565b6000612308601583611a8d565b9150612313826122d2565b602082019050919050565b60006020820190508181036000830152612337816122fb565b9050919050565b7f4552433732313a20696e76616c696420746f6b656e2049440000000000000000600082015250565b6000612374601883611a8d565b915061237f8261233e565b602082019050919050565b600060208201905081810360008301526123a381612367565b9050919050565b7f546f6b656e20646f6573206e6f74206578697374000000000000000000000000600082015250565b60006123e0601483611a8d565b91506123eb826123aa565b602082019050919050565b6000602082019050818103600083015261240f816123d3565b9050919050565b7f4552433732313a2061646472657373207a65726f206973206e6f74206120766160008201527f6c6964206f776e65720000000000000000000000000000000000000000000000602082015250565b6000612472602983611a8d565b915061247d82612416565b604082019050919050565b600060208201905081810360008301526124a181612465565b9050919050565b600081905092915050565b60006124be82611a82565b6124c881856124a8565b93506124d8818560208601611a9e565b80840191505092915050565b60006124f082856124b3565b91506124fc82846124b3565b91508190509392505050565b7f436572746966696361746520646f6573206e6f74206578697374000000000000600082015250565b600061253e601a83611a8d565b915061254982612508565b602082019050919050565b6000602082019050818103600083015261256d81612531565b9050919050565b7f4552433732313a207472616e736665722066726f6d20696e636f72726563742060008201527f6f776e6572000000000000000000000000000000000000000000000000000000602082015250565b60006125d0602583611a8d565b91506125db82612574565b604082019050919050565b600060208201905081810360008301526125ff816125c3565b9050919050565b7f4552433732313a207472616e7366657220746f20746865207a65726f2061646460008201527f7265737300000000000000000000000000000000000000000000000000000000602082015250565b6000612662602483611a8d565b915061266d82612606565b604082019050919050565b6000602082019050818103600083015261269181612655565b9050919050565b7f4552433732313a20617070726f766520746f2063616c6c657200000000000000600082015250565b60006126ce601983611a8d565b91506126d982612698565b602082019050919050565b600060208201905081810360008301526126fd816126c1565b9050919050565b7f4552433732313a207472616e7366657220746f206e6f6e20455243373231526560008201527f63656976657220696d706c656d656e7465720000000000000000000000000000602082015250565b6000612760603283611a8d565b915061276b82612704565b604082019050919050565b6000602082019050818103600083015261278f81612753565b9050919050565b7f4e487b7100000000000000000000000000000000000000000000000000000000600052601260045260246000fd5b7f4552433732313a206d696e7420746f20746865207a65726f2061646472657373600082015250565b60006127fb602083611a8d565b9150612806826127c5565b602082019050919050565b6000602082019050818103600083015261282a816127ee565b9050919050565b7f4552433732313a20746f6b656e20616c7265616479206d696e74656400000000600082015250565b6000612867601c83611a8d565b915061287282612831565b602082019050919050565b600060208201905081810360008301526128968161285a565b9050919050565b600081519050919050565b600082825260208201905092915050565b60006128c48261289d565b6128ce81856128a8565b93506128de818560208601611a9e565b6128e781611ad1565b840191505092915050565b60006080820190506129076000830187611bd2565b6129146020830186611bd2565b6129216040830185611ce8565b818103606083015261293381846128b9565b905095945050505050565b60008151905061294d816119f3565b92915050565b600060208284031215612969576129686119bd565b5b60006129778482850161293e565b9150509291505056fea26469706673582212209f156ee822b51fcb674220c814009ee7e7938785bfc6560f172500ca0b4979bd64736f6c634300080d0033",
  "immutableReferences": {},
  "source": "// SPDX-License-Identifier: MIT\n\npragma solidity ^0.8.0;\n\nimport \"@openzeppelin/contracts/token/ERC721/ERC721.sol\";\n\ncontract UniversityCertificateNFT is ERC721 {\n    \n    struct Certificate {\n        string studentName;\n        string courseName;\n        uint256 dateOfCompletion;\n    }\n    \n    mapping(bytes32 => Certificate) certificates;\n    \n    constructor() ERC721(\"University Certificate NFT\", \"UCNFT\") {}\n    \n    function createNFT(bytes32 _certificateHash, address _owner, string memory _metadataURI) public {\n        require(certificates[_certificateHash].dateOfCompletion > 0, \"Certificate does not exist\");\n        uint256 tokenId = uint256(_certificateHash);\n        _mint(_owner, tokenId);\n    }\n    \n    function getNFTMetadata(uint256 _tokenId) public view returns (string memory) {\n        require(_exists(_tokenId), \"Token does not exist\");\n        return tokenURI(_tokenId);\n    }\n    \n    function burnNFT(uint256 _tokenId) public {\n        require(_isApprovedOrOwner(_msgSender(), _tokenId), \"Not approved or owner\");\n        _burn(_tokenId);\n    }\n    \n}",
  "sourcePath": "/Users/priyankagupta/Documents/solidity_demos/blockchain-cred-certificate/contracts/UniversityCertificateNFT.sol",
  "compiler": {
    "name": "solc",
    "version": "0.8.13+commit.abaa5c0e.Emscripten.clang"
  },
  "schemaVersion": "3.4.13",
  "updatedAt": "2023-03-30T14:26:02.906Z",
  "devdoc": {
    "kind": "dev",
    "methods": {
      "approve(address,uint256)": {
        "details": "See {IERC721-approve}."
      },
      "balanceOf(address)": {
        "details": "See {IERC721-balanceOf}."
      },
      "getApproved(uint256)": {
        "details": "See {IERC721-getApproved}."
      },
      "isApprovedForAll(address,address)": {
        "details": "See {IERC721-isApprovedForAll}."
      },
      "name()": {
        "details": "See {IERC721Metadata-name}."
      },
      "ownerOf(uint256)": {
        "details": "See {IERC721-ownerOf}."
      },
      "safeTransferFrom(address,address,uint256)": {
        "details": "See {IERC721-safeTransferFrom}."
      },
      "safeTransferFrom(address,address,uint256,bytes)": {
        "details": "See {IERC721-safeTransferFrom}."
      },
      "setApprovalForAll(address,bool)": {
        "details": "See {IERC721-setApprovalForAll}."
      },
      "supportsInterface(bytes4)": {
        "details": "See {IERC165-supportsInterface}."
      },
      "symbol()": {
        "details": "See {IERC721Metadata-symbol}."
      },
      "tokenURI(uint256)": {
        "details": "See {IERC721Metadata-tokenURI}."
      },
      "transferFrom(address,address,uint256)": {
        "details": "See {IERC721-transferFrom}."
      }
    },
    "version": 1
  },
  "userdoc": {
    "kind": "user",
    "methods": {},
    "version": 1
  }
}