{
  "contractName": "UniversityCertificate",
  "abi": [
    {
      "inputs": [
        {
          "internalType": "uint256",
          "name": "_studentId",
          "type": "uint256"
        },
        {
          "internalType": "uint256",
          "name": "_courseId",
          "type": "uint256"
        }
      ],
      "name": "issueCertificate",
      "outputs": [
        {
          "internalType": "uint256",
          "name": "",
          "type": "uint256"
        }
      ],
      "stateMutability": "nonpayable",
      "type": "function"
    },
    {
      "inputs": [
        {
          "internalType": "address",
          "name": "_address",
          "type": "address"
        },
        {
          "internalType": "uint256",
          "name": "_index",
          "type": "uint256"
        }
      ],
      "name": "getCertificate",
      "outputs": [
        {
          "internalType": "uint256",
          "name": "studentId",
          "type": "uint256"
        },
        {
          "internalType": "uint256",
          "name": "courseId",
          "type": "uint256"
        },
        {
          "internalType": "uint256",
          "name": "certificateId",
          "type": "uint256"
        }
      ],
      "stateMutability": "nonpayable",
      "type": "function"
    }
  ],
  "bytecode": "0x608060405234801561001057600080fd5b5061050d806100206000396000f3fe608060405234801561001057600080fd5b50600436106100365760003560e01c80630d0b9eeb1461003b578063817bb3311461006b575b600080fd5b61005560048036038101906100509190610263565b61009d565b60405161006291906102b2565b60405180910390f35b6100856004803603810190610080919061032b565b610170565b6040516100949392919061036b565b60405180910390f35b60008068056bc75e2d631000006100b26101f3565b6100bc91906103d1565b9050600060405180606001604052808681526020018581526020018381525090506000803373ffffffffffffffffffffffffffffffffffffffff1673ffffffffffffffffffffffffffffffffffffffff1681526020019081526020016000208190806001815401808255809150506001900390600052602060002090600302016000909190919091506000820151816000015560208201518160010155604082015181600201555050819250505092915050565b6000806000806000808773ffffffffffffffffffffffffffffffffffffffff1673ffffffffffffffffffffffffffffffffffffffff16815260200190815260200160002085815481106101c6576101c5610402565b5b90600052602060002090600302019050806000015493508060010154925080600201549150509250925092565b600042443360405160200161020a9392919061049a565b6040516020818303038152906040528051906020012060001c905090565b600080fd5b6000819050919050565b6102408161022d565b811461024b57600080fd5b50565b60008135905061025d81610237565b92915050565b6000806040838503121561027a57610279610228565b5b60006102888582860161024e565b92505060206102998582860161024e565b9150509250929050565b6102ac8161022d565b82525050565b60006020820190506102c760008301846102a3565b92915050565b600073ffffffffffffffffffffffffffffffffffffffff82169050919050565b60006102f8826102cd565b9050919050565b610308816102ed565b811461031357600080fd5b50565b600081359050610325816102ff565b92915050565b6000806040838503121561034257610341610228565b5b600061035085828601610316565b92505060206103618582860161024e565b9150509250929050565b600060608201905061038060008301866102a3565b61038d60208301856102a3565b61039a60408301846102a3565b949350505050565b7f4e487b7100000000000000000000000000000000000000000000000000000000600052601260045260246000fd5b60006103dc8261022d565b91506103e78361022d565b9250826103f7576103f66103a2565b5b828206905092915050565b7f4e487b7100000000000000000000000000000000000000000000000000000000600052603260045260246000fd5b6000819050919050565b61044c6104478261022d565b610431565b82525050565b60008160601b9050919050565b600061046a82610452565b9050919050565b600061047c8261045f565b9050919050565b61049461048f826102ed565b610471565b82525050565b60006104a6828661043b565b6020820191506104b6828561043b565b6020820191506104c68284610483565b60148201915081905094935050505056fea2646970667358221220bb4af9e6fff8fb4419b41ab42cfb57c5c571b138dcd6dfec5a871bc1ac4f322564736f6c634300080d0033",
  "immutableReferences": {},
  "source": "// SPDX-License-Identifier: MIT\n\npragma solidity ^0.8.0;\n\ncontract UniversityCertificate {\n    \n    struct Certificate {\n        uint256 studentId;\n        uint256 courseId;\n        uint256 certificateId;\n    }\n    \n    mapping (address => Certificate[]) certificates;\n    \n    function generateId() private view returns (uint256) {\n        return uint256(keccak256(abi.encodePacked(block.timestamp, block.difficulty, msg.sender)));\n    }\n    \n    function issueCertificate(uint256 _studentId, uint256 _courseId) public returns (uint256) {\n        uint256 certificateId = generateId() % 100000000000000000000; // limit ID to 20 digits\n        Certificate memory newCertificate = Certificate(_studentId, _courseId,  certificateId);\n        certificates[msg.sender].push(newCertificate);\n        return certificateId;\n    }\n    \n    function getCertificate(address _address, uint256 _index) public returns (uint256 studentId, uint256 courseId,uint256 certificateId) {\n        Certificate storage certificate = certificates[_address][_index];\n        studentId = certificate.studentId;\n        courseId = certificate.courseId;\n        certificateId = certificate.certificateId;\n    }\n}\n",
  "sourcePath": "/Users/priyankagupta/Documents/solidity_demos/blockchain-cred-certificate/contracts/UniversityCertificate.sol",
  "compiler": {
    "name": "solc",
    "version": "0.8.13+commit.abaa5c0e.Emscripten.clang"
  },
  "schemaVersion": "3.4.13",
  "updatedAt": "2023-03-30T14:26:02.905Z",
  "devdoc": {
    "kind": "dev",
    "methods": {},
    "version": 1
  },
  "userdoc": {
    "kind": "user",
    "methods": {},
    "version": 1
  }
}